:020000040800F2
:100000002885001081020008774C0008614900082B
:10001000754C0008A91500084554000800000000B0
:100020000000000000000000000000001D4E00085D
:10003000FD18000800000000794C00081F4E000861
:100040009B0200089B0200089B0200089B0200081C
:100050009B0200089B0200089B0200089B0200080C
:100060009B0200089B0200089B0200089B020008FC
:100070009B0200089B0200089B0200089B020008EC
:100080009B0200089B0200089B0200089B020008DC
:100090009B0200089B0200089B0200089B020008CC
:1000A0009B0200089B0200089B0200089B020008BC
:1000B0009B0200089B0200089B0200089B020008AC
:1000C0009B0200089B0200089B0200089B0200089C
:1000D0009B020008395400089B0200089B0200089C
:1000E000FF1800089B0200089B0200089B02000802
:1000F0009B0200089B0200089B0200089B0200086C
:100100009B0200089B0200089B0200089B0200085B
:100110009B0200089B020008D54E00089B020008C5
:100120009B0200089B0200089B0200089B0200083B
:100130004D1800089B0200089B0200089B02000863
:100140009B0200089B0200089B0200089B0200081B
:100150009B0200089B0200089B0200089B0200080B
:100160009B0200089B0200089B0200089B020008FB
:100170009B0200089B0200089B0200080000000090
:100180009B0200089B0200089B0200089B020008DB
:100190009B0200089B0200089B0200089B020008CB
:1001A0009B0200089B0200089B0200084B1C012BCD
:1001B00098BF70472DE9F003911C9B08B1F80480AB
:1001C000B1F802900A8831F802CC8044814402449C
:1001D0008444D9F80070D8F800601568DCF8004055
:1001E000C9F80060C8F80070CCF800501460D9F865
:1001F0000470D8F804605568DCF80440C9F804605D
:10020000C8F80470CCF80450546008315B1ED5D196
:10021000BDE8F00370474B1C012B98BF70472DE9D8
:10022000F003911C9B08B1F80480B1F802900A8891
:1002300031F802CC00EB580800EB590900EB5202F0
:1002400000EB5C0CD9F80070D8F800601568DCF899
:100250000040C9F80060C8F80070CCF80050146085
:1002600008315B1EDFD1BDE8F0037047DFF80CD02A
:1002700001F020F8004800471557000828850010B5
:100280000648804706480047FEE7FEE7FEE7FEE730
:10029000FEE7FEE7FEE7FEE7FEE7FEE7C54E0008E5
:1002A0006D0200089FED3D0A5FEA920C57D000BF37
:1002B000D0ED000A90ED011A0B1D60EEA00A083087
:1002C00041EE010AF5EEC00AF1EE10FAA6BFB1EE5A
:1002D000E01A81ED001A81ED000AD0ED000A90EDE0
:1002E000011A191D60EEA00A083041EE010AF5EE70
:1002F000C00AF1EE10FAA6BFB1EEE01A83ED001AC3
:1003000083ED000AD0ED000A90ED011A0B1D60EE9E
:10031000A00A083041EE010AF5EEC00AF1EE10FA2B
:10032000A6BFB1EEE01A81ED001A81ED000A90ED52
:10033000001AD0ED010A191D21EE011A083000EE55
:10034000A01AB5EEC01AF1EE10FAA6BFF1EEC10A7E
:10035000C3ED000A83ED000ABCF1010CA8D112F034
:10036000030208BF704700BFD0ED000A90ED011AEC
:100370000B4660EEA00A091D083041EE010AF5EEB9
:10038000C00AF1EE10FAA6BFB1EEE01A83ED001A32
:1003900083ED000A521EE7D1704700000000000004
:1003A0002DE9F04106462DED028B8C4600887368DE
:1003B00001EB80044508274601EB850004EB85022C
:1003C0005FEA95087DD000BFD1ED003AD4ED001A68
:1003D00091ED012A94ED013A73EEA16A91ED024A82
:1003E00091ED031AD4ED022AD4ED035A90ED008A60
:1003F00090ED017A90ED020A90ED036A92ED005AB9
:10040000D2ED014AD2ED027AD2ED030AC1ED006AC3
:1004100072EE036A73EEE13A74EEC71AC1ED016A37
:1004200074EE226A74EE622A37EEC04AC1ED026AA7
:1004300071EE256AC1ED036A72EE436A31EE652AF8
:1004400038EE051A35EE483A80ED001A37EE241AD8
:1004500080ED011A30EE271A80ED021A36EE201ACE
:1004600080ED031A30EEC61A93ED000AD3ED010AAF
:1004700063EE804A26EEA05A66EE805A63EEA03AFA
:1004800074EE854A75EEE33AC4ED004A63EE204A05
:10049000C4ED013A61EE803A61EEA00A23EE000A53
:1004A00074EEE31A30EE800AC2ED001A82ED010A02
:1004B00093ED020AD3ED030A62EE803A22EE203A6F
:1004C00000E024E062EEA01A22EE002A73EE832AF6
:1004D0001030103172EE611AC4ED022A24EE202A87
:1004E000C4ED031A61EE001A61EE200A24EE000A40
:1004F000103332EE611A103430EE800A82ED021AA7
:1005000082ED030A1032B8F101087FF45DAF29468D
:1005100002236046726800F0ADFB72682946BDECAC
:10052000028B3846BDE8F041022300F0A3BB2DE961
:10053000F34F2DED048B87B00B980088470801EB33
:10054000870000EB870606EB8705CDE90056DDF84E
:100550002C80A5F1040C0CEB8703CDE902014FEAD6
:100560005709D8F804800427CDE90497D1ED000A93
:1005700096ED000A90ED011A95ED013A70EE802A91
:1005800070EEC03AD1ED010A96ED010A041F321F48
:1005900030EE802A70EEC01A31EE230AD0ED000A48
:1005A00032EE415A33EEC11A30EE434A71EEE04A60
:1005B00095ED000A70EEA11A35EE435A74EE805A9A
:1005C00072EEE04A70EEA20A71EEC01A31EE031A22
:1005D00074EEC04A30EE800A062708F1080A81ED61
:1005E000000A90ED010AD5ED010A08F1100B30EE7A
:1005F000020A08F1180830EE200A81ED010A80EDA8
:10060000004AC0ED015AC6ED004A86ED015A85ED5B
:10061000001AC5ED011ADDF81090083008310835D0
:100620000836A9F102095FEA590900F0078100BF05
:10063000D1ED000A96ED000AD0ED011AD5ED014A80
:1006400030EE802A30EEC05AD1ED010A96ED010A53
:1006500070EE802A30EEC01A31EE850AD5ED000A20
:1006600030EE644A90ED000A31EE403A30EE011A65
:1006700073EE205A32EE403A30EE020A31EE601A42
:1006800073EE603A30EE200A32EEE13A75EE611A0E
:1006900081ED000A90ED010AD5ED010A33EE643ACE
:1006A00030EE220A71EEA41A30EE200A81ED010A22
:1006B000D4ED002ADCED004A54ED010A1CED010ADC
:1006C00032EEA47A32EEE49A72EEE42A52ED018A16
:1006D00070EE807A30EEC02A72EEE82AD2ED000A7F
:1006E00093ED000A13ED018A30EEC05A72EE886A6B
:1006F00077EEE82A35EE026A32EEC85A77EE602AC3
:1007000072EEC04A70EEC02A70EE870A72EEC22AFC
:1007100030EE800A38EE682A84ED000A12ED010AF4
:1007200053ED010A32EE492A30EE270A30EE200A54
:1007300004ED010A9AED000ADAED010A64EE007A8E
:1007400025EEA07A65EE805A24EE204A37EE877AAD
:1007500035EEC44A80ED007A80ED014A26EEA04ACB
:1007600066EE005A66EE200A26EE800A083034EE65
:10077000654A083130EE800A82ED004A083C02EDFD
:10078000010A9BED000ADBED010ADDF814E023EE1F
:10079000804A63EE205A23EE003A63EEA03A083A0C
:1007A00034EE254A0BEB8E0B33EE633A86ED004AAE
:1007B0000AF1080A86ED013AB1EE643A083663EEB2
:1007C000003A25EE203A25EE000A64EEA00A33EE48
:1007D000C33A30EEC00A8CED003A0CED010A98EDF8
:1007E000000AD8ED010A08EB870861EE803A21EE95
:1007F000203A21EE001A61EEA01AACF1080C33EE9B
:10080000833A31EE611A85ED003A62EE801A85ED89
:10081000011A22EE201A62EEA00A22EE000A083522
:1008200031EE611A30EE800A83ED001A03ED010A01
:10083000083BB9F101097FF4FBAE00BFD1ED000A1E
:1008400096ED000A91ED011AD0ED015A30EE802AA2
:1008500070EEC00A96ED010A95ED015A042371EE7F
:10086000001A71EE404A35EEA00A90ED001A31EE02
:10087000E54A70EEE50A30EE453A95ED000A34EEB1
:10088000454A30EE855A74EEC12A72EE413A71EE55
:10089000240A31EE021A72EE802A73EEC03A70EE2C
:1008A000C00A31EE000A81ED000A90ED010A95EDD3
:1008B000011A30EE210A30EE010A81ED010A9AEDAB
:1008C000000A9AED011A63EE001A22EE812A22EE46
:1008D000800A23EE011A71EE821A30EE410AC0ED51
:1008E000001A80ED010A9BED000A9BED011A63EEF0
:1008F000801A24EE012A24EE000A23EE811A71EEFA
:10090000821A30EE410AC6ED001A86ED010A98ED12
:10091000010A98ED001A60EE801A25EE012A60EEB9
:10092000810A25EE000A32EE211A30EEC00A85ED6A
:10093000001A85ED010A0B984268DDE9030100F019
:1009400099F90B98042304994268029800F092F9EF
:100950000B98042304994268019800F08BF90B98D6
:10096000049904234268009807B0BDEC048B02B0E0
:10097000BDE8F04F00F07EB92DE9F04104889846BB
:1009800017460D460646012A20D1281DF4B1A0F1D4
:10099000080114F0010F06D091ED020AB1EE400AF1
:1009A00081ED020A08315FEA540C0FD091ED020A82
:1009B000B1EE400A81ED020A91ED040AB1EE400A5F
:1009C00081ED040A1031BCF1010CEFD1B4F5807F48
:1009D0001BD008DC102C13D0202C16D0402C19D0A2
:1009E000802C0DD01CE0B4F5007F13D0B4F5806FDF
:1009F00006D0B4F5006F08D0B4F5805F0AD00FE0E0
:100A000029463046FFF7CCFC0AE029463046FFF77E
:100A10008EFD05E0214601232846726800F02AF980
:100A2000B8F1000F04D0B1892846B268FFF7BEFBC9
:100A3000012F18BFBDE8F08100EE104AB7EE001A92
:100A4000002CF8EE400A81EE200A08BFBDE8F081D4
:100A5000A5F1080014F0010F0ED0D0ED020A60EEEF
:100A6000800AC0ED020AD0ED030AF1EE600A60EEE2
:100A7000800AC0ED030A0830610808BFBDE8F081B4
:100A8000D0ED020A60EE800AC0ED020AD0ED030A42
:100A9000F1EE600A60EE800AC0ED030AD0ED040AB0
:100AA00060EE800AC0ED040AD0ED050AF1EE600A9E
:100AB00060EE800AC0ED050A1030491EE0D1BDE8A5
:100AC000F081000070B44FF0000CB0EC010A4E1E33
:100AD0006446B50832D000BFD0ED000A90ED011A8F
:100AE0000830B4EEE00AF1EE10FA3CBFB0EE600A56
:100AF0000CF10104B4EEC10AF1EE10FA3CBFB0EE05
:100B0000410A0CF10204D0ED000A90ED011A083000
:100B1000B4EEE00AF1EE10FA3CBFB0EE600A0CF160
:100B20000304B4EEC10AF1EE10FA3CBFB0EE410A84
:100B30000CF104046D1E0CF1040CCDD116F0030C65
:100B400018D0BCF1004F1AD2BCF1000FC4BF002571
:100B500066460FDDD0ED000AF4EEC00AF1EE10FAA1
:100B600004DD4C19B0EE600AA4EB0C04001D6D1CF2
:100B7000761EEFD182ED000A1C6070BC7047F0EC6D
:100B8000010AB4EEE00AF1EE10FA3CBFB0EE600AE2
:100B9000A1EB0C04BCF1010CF1D1EBE770B44FF008
:100BA000000CB0EC010A4E1E6446B50832D000BFFE
:100BB000D0ED000A90ED011A0830B4EEE00AF1EE33
:100BC00010FAC4BFB0EE600A0CF10104B4EEC10A21
:100BD000F1EE10FAC4BFB0EE410A0CF10204D0ED00
:100BE000000A90ED011A0830B4EEE00AF1EE10FAB6
:100BF000C4BFB0EE600A0CF10304B4EEC10AF1EE1A
:100C000010FAC4BFB0EE410A0CF104046D1E0CF1E1
:100C1000040CCDD116F0030C18D0BCF1004F1AD241
:100C2000BCF1000FC4BF002566460FDDD0ED000A01
:100C3000F4EEC00AF1EE10FA04D24C19B0EE600ADC
:100C4000A4EB0C04001D6D1C761EEFD182ED000A92
:100C50001C6070BC7047F0EC010AB4EEE00AF1EEE3
:100C600010FAC4BFB0EE600AA1EB0C04BCF1010C99
:100C7000F1D1EBE72DE9FF4F2DED108B82B09FED09
:100C8000FEFA0B461C46DB084FF0000C0CEB03058C
:100C900005EB030808EB030909EB030606EB030A5F
:100CA00000EBCC0700EBC60697ED001AD6ED000A64
:100CB0000AEB030B00EBC50500EBCA0A31EE200A74
:100CC00071EE601A95ED002ADAED000A0BEB030EC7
:100CD00000EBC80832EE201A00EBCB0B32EE602A94
:100CE000D8ED002ADBED000A00EBC90900EBCE0EBF
:100CF00099ED003A9EED004A72EEA03A72EEE02ABB
:100D000073EE040A33EE443A70EE636A70EE233AEF
:100D100031EE600A71EE200A33EEA01A73EEE00A9B
:100D200087ED001AC6ED000A97ED011AD6ED010A0B
:100D3000D5ED013A98ED014A31EE206A71EE600A74
:100D40009AED011A99ED015A73EE814A73EEC13A98
:100D50009BED011A34EE017A34EE411A9EED014A00
:100D600075EE045A35EE444A36EE475A36EE076AB7
:100D700034EEE57A74EEA54A76EE245A76EE644AAD
:100D8000C7ED015AC6ED014A76EE874AC8ED004A22
:100D900076EEC74ACBED004A75EE404A35EE000AC2
:100DA000C8ED014A8BED010A32EE430A32EE032A06
:100DB00020EE0F0A62EE0F4A33EEC42AA4448C459B
:100DC00022EE0F3A33EE842A30EEC34A62EE0F3A37
:100DD00030EE833A31EEC02A31EE800A71EE630ABA
:100DE00031EE231A72EEE41A72EEA42A70EE013A82
:100DF00030EE410AC5ED003A8EED000A32EE200ACF
:100E00008AED000A32EE600A89ED000A33EE620ACA
:100E100085ED010A33EE220A8EED010A34EE610AF5
:100E20008AED010A34EE210A89ED010AFFF42EAFA2
:100E3000082B3FBF02B0BDEC108B04B0BDE8F08FB3
:100E40004FF0000CCDF804C04FF0010CCDF800C0FD
:100E5000DDF804C0159DAC444FEA8C0505EB0C078A
:100E6000CDF804C007EB0C094FEA4C0808EB0C0660
:100E700009EB0C0A02EBCC0C02EBC80802EBC6062D
:100E800002EBC50502EBC70702EBC90902EBCA0A70
:100E90009CED00DA9CED018AD8ED00CA96ED00CAFF
:100EA000D5ED00BA97ED00BAD9ED00AADAED008AC7
:100EB000D8ED017A96ED01AA95ED017AD7ED016A98
:100EC00099ED016ADAED019ADDF800C00CEB030739
:100ED000FD1805EB030A0AEB030808EB030606EB13
:100EE000030B00EBCC0900EBC808D9ED000A98ED24
:100EF000000A00EBC70700EBC606D7ED001A96ED17
:100F0000001A70EE803A0BEB030E70EEC00A31EE61
:100F1000810A00EBC50500EBCB0B31EEC11AD5ED14
:100F2000001A9BED002A00EBCA0A00EBCE0E31EE50
:100F3000824A71EEC21A9AED002ADEED002A32EEE4
:100F4000223A32EE622A73EEC42A73EE843A30EE0D
:100F5000435A30EE030A33EE803A73EEC0DA89ED7D
:100F6000003A99ED010A98ED013AD7ED013A95ED75
:100F7000014A70EE03EA30EE433A96ED010A9AED2B
:100F800001EADEED014A33EE809A73EEC03A9BED42
:100F9000010A74EE005A34EE404A3EEE240A7EEE18
:100FA000644A3EEEE5EA7EEEA55A79EE40EA39EE75
:100FB000009A32EEAE0A72EEEE2A75EE89EA35EE4E
:100FC000C99A7EEE455AC9ED01EA3EEE055A2BEE6E
:100FD000ADEA67EE09EA2BEE899A67EE2DDA3EEE6E
:100FE0002EEA39EE6D9A88ED00EA67EEA5DA88ED13
:100FF000019A2CEE809A6CEEA55A27EE800A39EE03
:101000002D9A35EEC00A85ED009A66EE055A85EDFB
:10101000010A2AEEA20A2AEE855A66EE222A30EE4C
:10102000250A8BED000A35EE620A73EEA42A8BEDD9
:10103000010A31EE420A31EE021A33EEE42A62EE80
:101040008F3A20EE0F0A21EE0F1A22EE0F2A70EED1
:10105000C02A30EE800A71EEC10A71EE811A33EEB9
:10106000421A33EE022A34EE633A34EE234A70EE2B
:10107000043A30EE444A01E0F304353F72EE834A0D
:1010800072EEC32A32EE613A32EE210A71EE601A34
:1010900071EE200A2DEE232A28EE031A2DEE033AD4
:1010A00068EE233AA44432EE011A28EE842A8C45D5
:1010B00087ED001A33EE631A29EE843A87ED011AA0
:1010C00029EE801A28EE800A32EE011A30EE430A29
:1010D00026EEA42A8EED001A8EED010A2BEE240ACC
:1010E00026EEA11A6BEE211A30EE010A2CEE221A1E
:1010F00086ED000A31EEC20A6AEE221A86ED010A76
:101100002AEE200A6CEE200A31EE000A8AED000A6F
:1011100030EEE10A8AED010AFFF4D8AEDDF800C036
:101120000CF1010CCDF800C063453FF691AEDDF83F
:1011300054C04FF6FF7404EACC0CCDF854C0072B12
:101140003FF6A0AD02B0BDEC108B04B0BDE8F08F4F
:101150002DE9F05F0546002092469B4688460646EC
:10116000814640241BE0284641464746224600F07F
:1011700090F853465A46C01A914110D3114618466A
:10118000224600F077F82D1A67EB01084F462246F9
:101190000120002100F06EF817EB00094E41201EDF
:1011A000A4F10104DFDC484631462A464346BDE847
:1011B000F09F10B5431A934209D28318881803E0B0
:1011C00010F8011D03F8011D521EF9D210BD40EAAE
:1011D00001039B0703D009E008C9121F08C0042AB5
:1011E000FAD203E011F8013B00F8013B521EF9D29C
:1011F00010BDD2B201E000F8012B491EFBD27047AE
:101200000022F6E710B513460A4604461946FFF7D2
:10121000F0FF204610BD30B505462A460B4612F8B1
:10122000010B13F8014B08B1A042F8D01CB1002803
:1012300002D06D1CF1E7284630BD421C10F8011B9E
:101240000029FBD1801A704730B50B4601460020BB
:101250002022012409E021FA02F59D4205D303FA78
:1012600002F5491B04FA02F52844151EA2F10102F9
:10127000F1DC30BD202A04DB203A00FA02F1002024
:1012800070479140C2F1200320FA03F319439040C4
:101290007047202A04DB203A21FA02F0002170472F
:1012A00021FA02F3D040C2F12002914008431946CE
:1012B00070470000064C074D06E0E06840F001036F
:1012C00094E8070098471034AC42F6D3FEF7D2FFFB
:1012D000D0090208100A0208464910B54A6822F4EB
:1012E00040324A604A6843681A434A6001684A6863
:1012F00022F480724A6001684A68036942EA032264
:101300004A6001684A6822F040724A6001684A688F
:1013100083681A434A6001688A6822F400628A601E
:1013200001688A68C3681A438A60816A6FF07062D4
:10133000D14201688A6822F070628A6001688A6816
:101340000CD0836A1A438A6001688A6822F040528E
:101350008A6001688A68C36A1A4301E022F0405239
:101360008A6001688A6822F002028A6001688A68DD
:10137000037E42EA43028A6090F820100029016847
:101380004A680FD042F400624A6001684A6822F459
:1013900060424A6001684A68174C436A04EB433371
:1013A0001A4301E022F400624A600168CA6A22F42A
:1013B0007002CA620168CA6A838B104C04EB035343
:1013C0001A43CA6201688A6822F400728A6001685E
:1013D0008A6890F8303042EA43228A6001688A685D
:1013E00022F480628A6001688A68406942EA80204B
:1013F000886010BD0023014000E0FFFF0000F0FF07
:1014000070B5684D4FF4005400222146284602F082
:1014100054F94FF4C87004F047F9012221462846D8
:1014200002F04BF9C82004F03FF9642004F03CF9C5
:10143000112003F0BDFA782004F036F9362003F0CD
:10144000B7FA002003F0C8FA3A2003F0B1FA0520F9
:1014500003F0C2FAB22003F0ABFA0C2003F0BCFA9E
:101460000C2003F0B9FA002003F0B6FA332003F0A1
:10147000B3FA332003F0B0FAB72003F099FA35201D
:1014800003F0AAFABB2003F093FA192003F0A4FAA0
:10149000C02003F08DFA2C2003F09EFAC22003F046
:1014A00087FA012003F098FAC32003F081FA122092
:1014B00003F092FAC42003F07BFA202003F08CFAA8
:1014C000C62003F075FA0F2003F086FAD02003F04F
:1014D0006FFAA42003F080FAA12003F07DFAE02047
:1014E00003F066FAD02003F077FA042003F074FAD0
:1014F0000D2003F071FA112003F06EFA132003F0AF
:101500006BFA2B2003F068FA3F2003F065FA5420B1
:1015100003F062FA4C2003F05FFA182003F05CFA43
:101520000D2003F059FA0B2003F056FA1F2003F0A8
:1015300053FA232003F050FAE12003F039FAD020C7
:1015400003F04AFA042003F047FA0C2003F044FAAF
:10155000112003F041FA132003F03EFA2C2003F08F
:101560003BFA3F2003F038FA442003F035FA5120CB
:1015700003F032FA2F2003F02FFA1F2003F02CFA89
:101580001F2003F029FA202003F026FA232003F07D
:1015900023FA212003F00CFABDE87040292003F063
:1015A00007BA0000001C0240FEE700002DE9F047EA
:1015B000324C4FF4004801224146204602F07DF8AB
:1015C000052004F07FF8206820F04040206020686B
:1015D0002060052004F076F84FF480470022394659
:1015E000204602F06AF8052004F06CF80025C14698
:1015F00001223946204602F060F8052004F062F826
:1016000070064FEA1068052004F05CF84946204651
:1016100002F046F840EA0806052004F053F80022DC
:101620003946204602F049F8052004F04BF86D1CBD
:10163000EDB2082DDCD3206820F040402060206807
:1016400040F08040206001224946204602F035F8F3
:10165000052004F037F801223946204602F02DF823
:10166000052004F02FF800223946204602F025F824
:10167000052004F027F83046BDE8F0870008024056
:1016800070B5164C206820F040402060206840F083
:1016900080402060012295032946204602F00DF883
:1016A000052004F00FF80122D6033146204602F04F
:1016B00004F8052004F006F800223146204601F027
:1016C000FCFF052003F0FEFF00222946204601F022
:1016D000F4FFBDE87040052003F0F4BF00080240AD
:1016E00070B5124C206820F040402060206840F027
:1016F000804020604FF4004500222946204601F03A
:10170000DCFF052003F0DEFF01229103204601F0FB
:10171000D4FF052003F0D6FF01222946204601F020
:10172000CCFFBDE87040052003F0CCBF00080240AC
:101730002DE9F041294C0646206820F04040206009
:10174000206840F08040206000254FF400484FF4AE
:101750008047300601D5012200E0002241462046A4
:1017600001F0ABFF052003F0ADFF01223946204612
:1017700001F0A3FF052003F0A5FF00223946204613
:1017800001F09BFF052003F09DFF70066D1C060E07
:10179000EDB2082DDDD3052003F094FF206820F082
:1017A000404020602068206001223946204601F038
:1017B00084FF052003F086FF4146204601F070FFBC
:1017C000052003F07FFF00223946204601F075FF17
:1017D000BDE8F041052003F075BF0000000802409D
:1017E00040F2014000F00DB810B5FFF749FF4F205F
:1017F000FFF79EFFFFF7DAFE0446FFF771FF204672
:1018000010BD10B50446FFF73BFFE009C0F34400EC
:10181000482141EA4000FFF78BFFE0B2FFF788FF65
:10182000BDE81040FFF75CBF10B5064A0020014636
:10183000054C137802E02154401CC0B29842FAD300
:10184000117010BD2A00001020020020014801F094
:101850004DBC0000A800002001681823CAB2103A4D
:10186000B2FBF3F2054B6FF30901032A9B5CC365DE
:1018700000D9091D8165084670470000F45700082B
:1018800010B5014600208B698A6A4FF0C07453B1CD
:10189000B3F5005F15D072B1012A0CD0022A0AD02C
:1018A000032A09D104E01AB1012A06D0022A03D181
:1018B000C96AC90100D5012010BDC96AA142FAD088
:1018C00010BD002AF7D0012AF2D0022AF3D0032A51
:1018D000F3D010BD30B50468256825F48025256057
:1018E000046863608368402B036803D099600068D4
:1018F000C26030BD9A600068C16030BD70474FF46F
:10190000005001F0A7BD72B6FEE7000010B5044814
:1019100001F012FB024801F0B1FA80B210BD0000E4
:10192000440000100178012902D0012101707047A4
:101930000021FBE72DE9FC4F06460F46941BD81B00
:101940009A469046002C00DC6442002800DC4042AD
:1019500081464FF0FF30464501D2012100E00146AB
:101960000191574500D20120A4EB0905C9F1000BF4
:101970000090394630460B9A00F016F8464501D1E2
:1019800057450ED06800584504DD0199A5EB0905BF
:1019900031448EB2A042ECDA00982544384487B234
:1019A000E7E7BDE8FC8F0000F02808D2F02906D256
:1019B000034BC1EB011103EB411121F810207047DB
:1019C000200300202DE9F8411D46079C1646884655
:1019D00007460B460094FFF7ADFF3A462B464146BB
:1019E00010460094FFF7A6FF2B46324619463846AC
:1019F0000094FFF79FFF32462B4641461046009465
:101A0000FFF798FFBDE8F88138B50020EF2431E0FA
:101A10001A499FED1C0A01EB80021949D2ED001A08
:101A2000B0EE401AD1ED000A00EEE11ABCEEC11A88
:101A300011EE101A92ED011A89B200EEC10AC829FE
:101A4000BCEEC00A10EE102A93B201D9C82102E000
:101A5000282900D22821C82B01D9C82302E0282B2D
:101A600000D2282341F6F872451C0092AAB2FFF773
:101A700061FFA8B2A042CBDB38BD000020450220A8
:101A80001400002000004843F0B50A4E059F0DE009
:101A9000C1EB0115044606EB451503E025F814706B
:101AA000641CA4B29442F9D9491C89B29942EFD975
:101AB000F0BD0000200300202DE9FF4F0446DDF8B3
:101AC00038A080464FEA5A07F808203A00FB0AFB84
:101AD000D0B2002602903FE0BAF1100F18D0BAF150
:101AE000200F3BD11E49029801EB8010002510F811
:101AF00006900F9888B10121A94011EA090F04D07E
:101B00002046039A0199FFF74FFF641CA4B213E02B
:101B10001449029801EB0010E8E70120A84010EA00
:101B2000090F204604F10104A4B201D0039A00E099
:101B30000D9A0199FFF738FFA4EB0800B84205D1D0
:101B400001984446401C80B2019003E06D1CEDB248
:101B5000082DCED3761CB6B25E45BDD3BDE8FF8F4F
:101B600008A6000818A000082DE9FE479946DDE9FF
:101B70000C6714468A460546DDF82C800CE0CDF84B
:101B800000804B4651462846CDE90167FFF794FF98
:101B900005EB560085B2641C2278002AEFD1BDE81F
:101BA000FE8700002DE9F0470024B0B0EF231A466D
:101BB000214620460094FFF767FF4FF6FF76EF239C
:101BC00000211A4608460096FFF7FCFE2823EF2264
:101BD000194600200096FFF7ADFEC823EF221946F4
:101BE00000200096FFF7A6FEB046994E00254FF460
:101BF000FE7700BF06EB85004246418836F8250097
:101C0000FFF7D2FE6D1CADB2BD42F3D31422914951
:101C10001FA8FFF7CEFA90480021008800EE100AB6
:101C200020A8B8EE400A00F0EBFA4FF01009CDE919
:101C3000004901214D46F1231FAA08460294FFF7EF
:101C400093FF84491422143115A8FFF7B2FA834890
:101C500015AE022190ED000A301D00F0D1FA30449B
:101C6000762707714471CDE90045F12315AA0121BA
:101C700046200294FFF778FF7649142228311AA8EB
:101C8000FFF797FA76481AAE022190ED000A301D50
:101C900000F0B6FA3044F12307714471CDE90045F4
:101CA0001AAA012196200294FFF75EFF69491422C7
:101CB0003C3124A8FFF77DFA6A4890ED020ADFED77
:101CC0006A0A01210DF1930020EE200A00F098FA33
:101CD000CDE90045F12324AA142101200294FFF745
:101CE00043FF5C49142250310BA8FFF762FA5F48AA
:101CF00001880DA800F0EAFE0BAE31184FF02C0A57
:101D000081F808A0401C5A4987B2F0195546098845
:101D1000083000F0DBFE384480B23044554905728B
:101D2000097800297ED07921417229278772C472EF
:101D3000CDE900494E46F1230BAA1421502002940C
:101D4000FFF712FF43491422643110A8FFF731FA5C
:101D500040491422783129A8FFF72BFA464890ED24
:101D6000000ADFED460A10AD002120EE200AA81D72
:101D700000F046FA801D1FFA80F86D2005F8080073
:101D800005EB0800732141708470CDE90046F12312
:101D900010AAC921012008F102080294FFF7E4FE0D
:101DA00037489FED381A0121D0ED000A0DF1AA0045
:101DB00081EE200A00F024FACDE90046092000EB6C
:101DC000C80080B2F12329AAC9210294FFF7CCFEF2
:101DD000204920228C3103A8FFF7EBF92A4A05A8F5
:101DE000012192ED000A00F00BFA083080B203AD39
:101DF000264A05F800A0401C86B2D046A819012149
:101E000092ED000A00F0FCF9304480B24F2105F851
:101E10000080284441701E49097841B16E218170CB
:101E2000C77000E001E0047106E078217CE76621DC
:101E30008170C17007714471CDE90049F12303AA93
:101E4000DD2101200294FFF78FFE30B0BDE8F0875E
:101E500034980008C8BD00081000001014000010DD
:101E6000100000201C00002000007042180000201C
:101E70001C000010290000101800001000401C4138
:101E80001400002000002042200000102800002044
:101E90002D000020F8B52A4F7D88F02D00D3F025C5
:101EA000284E348846E07888401EA04247DD264808
:101EB000DFED270A00EB8403244893ED001AF0EECF
:101EC000601A90ED000A234840EE411A008801EEA6
:101ED000100AB8EE411A31EEC11ABCEEC11A11EE69
:101EE000101A93ED011A89B240EE410A00EE100A71
:101EF000C829B8EE400A30EEC00ABCEEC00A10EEA7
:101F0000100A83B201D9C82102E0282900D2282171
:101F1000C82B01D9C82302E0282B00D228234EF277
:101F200007000090A01A421C92B280B2FFF702FD97
:101F3000641CA4B232885019401EA042B3DCF8BD24
:101F40001841001018000020244100101400002047
:101F5000000048431C00001010B500F0C1F905490D
:101F60000968401AB0F5FA7F01D9012010BD0020A0
:101F700010BD00002C00001006480021054A4180D9
:101F8000017081600846121D1154401CC0B2042823
:101F9000FAD370473400002070B514460D4606464B
:101FA000B2F5806F21D006DCB4F5807F27D0B4F580
:101FB000007F16D11EE0B4F5006F07D0B4F5805F46
:101FC0000FD10123014600221D4803E001460123F1
:101FD00000221C48FEF7D0FC224629463046FEF778
:101FE00061F90020F5EE000A1EE0012301460022FF
:101FF0001548EFE70123014600221448EAE70123D0
:10200000014600221248E5E700EE104A05EB800188
:10201000401CB8EE400A91ED001A80B220EE200A72
:10202000C1EE001AC1ED001AA042EDD395ED000AF1
:10203000F6EE000A20EE200A85ED000A70BD0000D1
:10204000B4BE0008A4BE000894BE000884BE000808
:1020500074BE000809489FED0A2AF0EE401A90ED80
:10206000001A4FF48052074982EE010AB0EE601A5E
:10207000F0EE610A044800F059B8000018000010A2
:10208000000080452045022020C5012038B50024ED
:10209000ADF800409FED1C0A6A464FF400611B48F2
:1020A00000F052FC1A489FED1B1A1D4B90ED000AE0
:1020B000BDF800001B49C1EE000A00EE100A1748E7
:1020C000B8EE400A20EE800ADFED130A20EE200A67
:1020D00080ED000AD0ED010A70EEC00A10EE902AE1
:1020E0009A4204DC10EE902A0F4B9A4203D980EDFD
:1020F000010A0C8038BD0A88521C92B20A80052A57
:10210000F8D380ED020A38BD0AD7A33C244502204B
:102110001800001000008045000080391C000020DD
:102120000AD7233C3C0000100AD723BC70B5F4EE5C
:10213000C10A1446F1EE10FA0D4659DC01EE904A40
:10214000F8EE611A60EEA11AC1EE800AFCEEE00A18
:1021500010EE901A00EE904A8BB2F8EE600A21EE73
:10216000201AC1EE000ABCEEE00A10EE101A9FED34
:10217000210A8AB217E000BFB3EB540F15D800EB69
:10218000C30181ED000A81ED010A53B1B3EB540F95
:1021900007D0E11A89B200EBC10181ED000A81ED9F
:1021A000010A5B1C9BB29342E6D922462946FEF700
:1021B00079F80020B5EE000A10E000BF00EE904A6A
:1021C00005EB8001401CF8EE600A91ED001A80B228
:1021D00060EE800AC1EE201AC1ED001AA042EDD3D4
:1021E000D5ED000AB6EE000A20EE800A85ED000A61
:1021F00070BD000000000000FEF764BCFEF7CEBC1E
:102200002DE9F041B5EEC00AF0EE400A0027F1EEEC
:1022100010FA0E4604463D4605D22D2004F8010B67
:10222000F1EE400A012710EE900A2349884201DBB3
:10223000DFED220A052E00D30526BCEEE01A11EED2
:10224000100A80B280460146204600F03FFCB5EE01
:10225000C00A3844F1EE10FA80B204EB000200D25A
:10226000521E002E26D000EE108A2E21401CB8EE01
:10227000400A02F8011B80B2B2EE041A30EEC00A26
:1022800014E060EE010A401C6D1C80B2BCEEE00A56
:10229000ADB210EE101A89B200EE101A01F130033F
:1022A00002F8013BB8EE400A30EEC00AB542E8D36E
:1022B00000211170BDE8F081003C1C46003C1C462A
:1022C00000B500F00DF805498A681AB1821A8860D5
:1022D000104600BD8860002000BD000030000010E6
:1022E0000348017809B1002070474068704700003A
:1022F0003000001070B514460E460546B2F5806FEA
:102300001AD006DCB4F5807F23D0B4F5007F11D15C
:102310001AE0B4F5006F07D0B4F5805F0AD101234D
:1023200001461A46144803E0012301461A461348A1
:10233000FEF722FB00231BE0012301461A4610484A
:10234000FEF71AFB002309E0012301461A460D4857
:10235000EEE7012301461A460B48E9E705EBC30007
:1023600090ED000A06EB83005B1C80ED000A9BB237
:10237000A342F3D370BD0000B4BE0008A4BE0008A1
:1023800094BE000884BE000874BE00082DE9F04128
:102390000B4E7088002811D001242746601E07FAD2
:1023A00000F57088054205D0204600F07BF82046F5
:1023B00000F008F8641CE4B2102CEFD9BDE8F081FD
:1023C00034000020401E0F2805D80121814002481A
:1023D00042888A434280704734000020401E0F2804
:1023E00005D801218140024842881143418070474D
:1023F0003400002070B5050025484FF0000402D0DD
:10240000012D02D008E0402100E0802101F048F9D0
:1024100008B1012400E00024FFF762FF1D490346D4
:1024200005EB450201EB82004678A64200D04360EE
:1024300046689E1BB6F5FA7F1FD901F82240E4B129
:102440008168591A642918D3134E1449144A15B1D6
:10245000012D0AD010E035781DB1118861B1491EF7
:1024600009E00A8842B1521E0FE035783DB111886B
:10247000A02901D2491C11808360447070BD0A8874
:1024800040F6FF75AA42F7D2521C0A80F4E700001A
:102490000018024008020020290000101800002047
:1024A0001C0000102DE9F047AC4C8246AC4D607822
:1024B0004FF000084FF0010904F10C06271DA0B1F0
:1024C000012823D1231D181F19780078DB78BAF171
:1024D000110F5BD2DFE80AF0585B656D778E969E30
:1024E000A6A9B1B9C1C6C9D3F100F088A98A084329
:1024F000FFF787F9BAF1090F08D2DFE80AF00509FA
:102500000B0D0F141A393F00A4F80280BDE8F087C4
:10251000944804E0944802E0944800E09448BDE800
:10252000F047FFF7FFB984F80190FFF725FD9148C8
:1025300004E084F80190FFF71FFD8F48A060397810
:10254000308835F811100843FFF75BF97978708807
:1025500035F811100843FFF754F9B978B08835F809
:1025600011100843FFF74DF9F088E98A0843F1E0BC
:1025700084F80190FFF700FD8048DFE784F80190C0
:10258000FFF7FAFC7E48D9E7A4F802807BE036F832
:10259000100069880843FFF734F9217807F80190A3
:1025A00071E036F81000A9880843FFF72AF90220E5
:1025B00006E036F81000E9880843FFF722F9032007
:1025C000217878545FE065480C30012B00880AD0F0
:1025D00087F8039035F81110084340F0800000BFE1
:1025E000FFF70FF94FE087F8038015F8111001F09D
:1025F0007F019DE036F8100029890843FFF701F9B3
:102600000420DDE736F8100069890843FFF7F9F880
:102610000520D5E736F81000A9890843FFF7F1F83F
:102620000620CDE7FFF7A8FC2DE036F81000E98979
:102630000843FFF7E6F80720C2E736F81000298ABA
:102640000843FFF7DEF80820BAE736F81000698A79
:102650000843FFF7D6F80920B2E7FFF78DFC84F8AE
:10266000018063E078B1401E0CE036F81000298844
:102670000843FFF7C6F8217807F8018003E0022835
:1026800001D2401C20703978308835F81110084389
:10269000FFF7B7F87978708835F811100843FFF71D
:1026A000B0F8B978B08835F811100843FFF7A9F8E9
:1026B000607801283ED042E0FFE7284884F8018096
:1026C000021DD0F808C050789278B2EE041A012B9F
:1026D00001D09BB128E000EE100A00EE901AB8EE8F
:1026E000400AF8EE600A00EE810A00EE902A9FEDA3
:1026F000251AF8EE600A00EE810A13E000EE101AC7
:10270000DFED210AB8EE400A60EE200A00EE100A62
:10271000B8EE400A40EE010A00EE102AB8EE400A78
:1027200030EE800A8CED000AFFF726FCF088A98ABB
:10273000084355E7F088E98A0843FFF762F8F8781C
:1027400001287FF4E3AE3978308835F8111008435A
:1027500040F08000BDE8F047FFF753B83400002098
:10276000145800082C000020280000102D00002024
:102770002900001020000010280000201800001080
:1027800024000010CDCCCC3D0000C84208B500208C
:10279000EF231A4601460090FFF776F9BDE808409E
:1027A000FEF72EBE2DE9E04FDFF8E090384E012510
:1027B000B9F80000718800F1F0030A1A2F03521CC7
:1027C000BB4205D881420CD3994205D3F02508E0DD
:1027D000814206D3B94201D295B202E0C0F58050E1
:1027E00085B2EF2300211A46084602F0BAF84FF0EE
:1027F000010A4FF4614BA4F800A05A462549264827
:1028000001F056FC4FF00008244F0AE0208840B148
:1028100071880022224800F01FFA00F07DF9A4F828
:102820000080386840680028F0D1A4F800A05A461B
:102830001C49194801F03CFCC2464E46DFF8608056
:102840001DE02088A8B1FFF721FC3188234608EB62
:102850008100154A2946FFF7CFFC3188234608EB53
:102860008100124A2946FFF7C9FCFFF78FFDA4F843
:1028700000A00020FFF7BEFD0120FFF7BBFD386878
:1028800040680028DDD1BDE8E08F0000180000207E
:10289000184100102003002050000020A800002054
:1028A0002441001020E4002014000010100000203B
:1028B0002DE9F0418846054601461D48FEF7ABFC70
:1028C0001C4C0028206025D0B8F1000F2ED02846DF
:1028D000FEF7B3FC06464046FEF7AFFC054620680F
:1028E000FEF7ABFC871BAE420BD32A46414620685D
:1028F000FEF75FFC20687A1C81192844FEF759FC1A
:1029000014E00B4A2068821A2A443A44B2F5807FC8
:1029100002D30020BDE8F081811928447A1CFEF71B
:1029200048FC2A4641462068FEF743FC0120F1E7B7
:102930002002002030000020014601A002F084BDEA
:1029400025730D0A0000000070B50023491E2CE01D
:1029500000EB8304D4EC020AF4EEC10AF1EE10FAA3
:1029600021D201241CE000BF00EB850696EC021A80
:10297000B4EEE11AF1EE10FA10DD1E1900EB860636
:1029800096ED001A71EE600AF4EEC00AF1EE10FA4C
:1029900002DB1819108070BDABB204E0641CA4B255
:1029A0001D198D42E0DB5B1C9BB28B42D0DB70BDFE
:1029B00010B5002105A0FFF77BFF002804D0BDE87B
:1029C000104004A0FFF7B8BF10BD00004552524FA1
:1029D000450000004552524F5200000010B513A0B0
:1029E000FFF7AAFF642002F05FFE11A0FFF7A4FF2B
:1029F000642002F059FE11A0FFF79EFF642002F050
:102A000053FE1248FFF798FF642002F04DFE10A01D
:102A1000FFF792FF642002F047FE15A0FFF78CFF3E
:102A2000BDE81040642002F03FBE00004154490060
:102A300041542B4D495043414C4C3F0041542B4D88
:102A4000495043414C4C3D310000000088090208C8
:102A500041542B54434D515454434F4E4E3D312C11
:102A600032303030302C3234302C312C31000000F8
:102A700041542B54434D5154545355423D222474D8
:102A800068696E672F646F776E2F70726F706572F2
:102A900074792F554D4535494A513754582F667230
:102AA00065715F73686F77222C31000006484168BA
:102AB000B1F1113F03D200220270491C01E0012153
:102AC0000170416070470000300000107EB50024A6
:102AD000A1B103460022009401940A206D4602949D
:102AE000B1FBF0F600FB1616B1FBF0F13036AE5438
:102AF000521C92B20029F3D1104609E03021017036
:102B0000447001207EBD521E92B2A95C03F8011BE5
:102B1000002AF8D11C707EBD70B500F03BF84FF470
:102B20008054224614491548FFF736FA14480078B5
:102B300000281FD01348D0ED000A134890ED000A7A
:102B4000FFF788FA224611490C48FFF7D3FB0F49DB
:102B50000F4B002001EB800203EB800592ED000A91
:102B6000D5ED000A401C80B280EE201AA04282ED12
:102B7000001AEFD370BD00002045022020C50120BF
:102B80002D0000202800002020000010244100100B
:102B90003458000830B50F4B0F4C10499FED100A08
:102BA00000204FF4805500BF03EB8002D2ED000AF5
:102BB00004EB800292ED001A01EBC002401C60EEB3
:102BC000810A80B2A842C2ED000A82ED010AEBD36D
:102BD00030BD0000244100103458000820C50120F9
:102BE0000000000010B5084B0288002431B119889C
:102BF00005E0521C028010BD048010BD5988491E9A
:102C00008A42F9DAF5E7000018410010018811B195
:102C1000491E0180704701494988F9E718410010B1
:102C20000B4900204FF4805348800B808880C88077
:102C300008819FED080AA1F5804100BF01EB8002E9
:102C4000401C80B282ED000A9842F7D37047000022
:102C50001841001000000000F0B505461748002498
:102C600043888B4200D819460E46154B44F20401A6
:102C700044F20807C95A1F4401816AB918E000BF2D
:102C800000F020F805EB8400641C80ED000AA4B27B
:102C900000213846FFF7A6FFB442F1D3F0BD00BFD4
:102CA00000F010F805EB8400641C80ED000AA4B26B
:102CB0003846FFF7ABFFB442F2D3F0BD1841001025
:102CC0001801001003480449008901EB800090EDD1
:102CD000000A704718410010180100100D4800B597
:102CE000C188A0F5804202EB810181ED000A418894
:102CF0000288914202D2491C418004E0054800212B
:102D0000001DFFF76FFF03480121801D5DF804EBF4
:102D1000FFF768BF1841001078B50024009490F8C0
:102D20003C20012A19D0012280F83C200A680723A0
:102D30000568092A13D9EE680A3A02EB4202934069
:102D40009E43EE600B788A680A3B03EB43039A408C
:102D50000368DD682A43DA6010E0022078BD2E693E
:102D600002EB420293409E432E610B788A6803EB8C
:102D700043039A4003681D692A431A614A681F2366
:102D8000072A13D205686E6B521E02EB8202934033
:102D90009E436E630A8893B20A79521E02EB820246
:102DA00093400268556B2B43536327E005680D2A57
:102DB00012D22E6BD21F02EB820293409E432E63EF
:102DC0000B790A88DB1F92B203EB83039A400368F6
:102DD0001D6B2A431A6311E0EE6A0D3A02EB820280
:102DE00093409E43EE620B790A880D3B92B203EB4F
:102DF00083039A400368DD6A2A43DA621B4B056845
:102E0000194A9D420AD10D68122D07D1556825F443
:102E100000055560556845F48005556005689D427C
:102E20001DD1134D0B68AB4201D0112B17D1536844
:102E300023F480035360536843F40003536009682C
:102E4000A9420CD10B490C4A0968B1FBF2F101EB24
:102E50008101490000E0491E00910029FBD180F862
:102E60003C40002078BD00000023014000200140CC
:102E7000120000100C00002040420F000068C06CDF
:102E8000704770B504004FF0000503D0206C002699
:102E900010B107E0012070BD204600F01DF8666407
:102EA00084F83C60206CC00610D4206C20F488505C
:102EB00040F0020020642046FEF70EFA6664206CA3
:102EC00020F0020040F00100206400E0012584F8B9
:102ED0003C60284670BD000010B586B00446142141
:102EE0006846FEF78DF91149206888421CD11048C8
:102EF0000021026842F480720260006800F4807071
:102F000005900B481438026842F004020260006821
:102F100000F004000590042000900320CDE9010199
:102F20006946044800F0A2FA06B010BD0020014036
:102F3000443802400008024018B50021009190F882
:102F40003C20012A07D0012280F83C2002689368C7
:102F5000DB0702D011E0022018BD936843F00103A3
:102F600093602E4A2E4B1268B2FBF3F202EB420240
:102F700000E0521E0092002AFBD102689368DB0732
:102F800042D0036C40F20164A34343F480730364B2
:102F900053685B0505D5036C23F4005343F4805359
:102FA0000364036CDB0404D5436C23F00603436421
:102FB00000E0416480F83C101A496FF0220313606E
:102FC00049680068CA06184906D0884224D1816839
:102FD00011F0405F13D01FE08842F8D0134A9042AE
:102FE00003D1D1F80423D206F1D0114A904213D173
:102FF000D1F8041301F01F011029E8D30CE0816817
:1030000041F08041816007E0016C41F010010164F2
:10301000416C41F001014164002018BD0C0000200A
:1030200040420F00002301400020014000210140E8
:10303000002201402DE9F0410446876D00F042FB7B
:10304000064694F835000025022806D080206065E9
:1030500084F834500120BDE8F0812068016821F037
:10306000160101602068416921F080014161206CF6
:1030700008B9A06C20B12068016821F00801016046
:103080002068016821F0010101600CE000F01AFBEA
:10309000801B052807D920206065032084F83500AF
:1030A00084F83450D7E720680068C007EED194F860
:1030B0005C103F208840B860012084F8350084F817
:1030C00034500020C7E790F83510022903D0802142
:1030D000416501207047052180F8351000680168BE
:1030E00021F0010101600020704700002DE9F84344
:1030F00004464FF00009CDF8009063484FF4165194
:10310000A56D0068B0FBF1F72E6894F85C100820FC
:1031100000FA01F131420FD021680A6852070BD53D
:103120000A6822F004020A6094F85C108840A860E3
:10313000606D40F00100606594F85C104FF001088C
:1031400008FA01F0304208D021684969090604D51F
:10315000A860606D40F00200606594F85C10042087
:103160008840304208D021680968890704D5A860E2
:10317000606D40F00400606594F85C101020884099
:10318000304218D021680968090714D5A860206862
:103190000168490304D50068000308D5A16C07E065
:1031A0000168C90503D4016821F008010160216CA0
:1031B00009B12046884794F85C10202088403042AE
:1031C00031D021680968C9062DD5A86094F835006A
:1031D00005282068016806D0490347D50068000328
:1031E0001DD4616C1CE021F016010160206841696A
:1031F00021F080014161206C08B9A06C20B12068E9
:10320000016821F00801016094F85C103F208840BB
:10321000A86084F8358084F83490216D1FE0E16B5C
:1032200009B120468847606D00282BD0606DC0072B
:1032300014D0052084F835002068016821F00101D0
:1032400001600098401C0090B84203D820680068D4
:10325000C007F6D184F8358084F83490E16C0029F9
:1032600010D001B02046BDE8F04308470168C90509
:10327000D5D4016821F01001016084F8358084F80C
:103280003490CCE7BDE8F8830C0000202DE9F04134
:10329000044600F017FA06465CB1022084F83500B7
:1032A000002584F834502068016821F00101016094
:1032B0000DE00120BDE8F08100F004FA801B052834
:1032C00005D920206065032084F83500F2E72068E6
:1032D0000068C007F0D12268116820480140D4E995
:1032E00001031843D4E90336334318436369184391
:1032F000A3691843E3691843236A18430843616AC2
:10330000042903D1D4E90B13194308431060206842
:103310004069666A20F0070130460E430127042801
:103320000CD1A06A0643E06A40B12046FEF7A8FA35
:1033300020B14020606584F83570BAE720684661A6
:103340002046FEF789FA94F85C203F219140816085
:10335000656584F835700020ACE700003F8010F010
:103360002DE9F0410446866D90F8340000250128CF
:103370000DD0012084F8340094F835700020012F1E
:1033800007D084F8340002252846BDE8F0810220E9
:10339000FBE7022784F8357060652046FEF79AFA4D
:1033A00094F85C103F208840B0602068016841F0CC
:1033B00016010160206C20B12068016841F008010D
:1033C00001602068016841F001010160DCE710B58F
:1033D000B0F5005F3DD1FEF707FA44381C2836D21D
:1033E000DFE800F00E10191B353535351D1F212380
:1033F000353535352527292B353535352D2F3133C5
:10340000012000E00220FEF7E9FFBDE8104040F295
:103410000140FEF7F6B90320F5E70420F3E70520A5
:10342000F1E70620EFE70720EDE70820EBE70920AA
:10343000E9E70A20E7E70B20E5E70C20E3E70D20AA
:10344000E1E70E20DFE70F20DDE71020DBE70020BB
:10345000D9E710BD044910B50A68024202D00860DD
:10346000FFF7B5FF10BD0000143C01402DE9F84FF7
:10347000DFF8F8A10022012403254FF00F090AF11B
:10348000040BAAF1040E00BF0B6804FA02F63340E5
:10349000B34270D10F7907F00307012F01D0022F3B
:1034A00016D187684FEA420805FA08FC27EA0C079C
:1034B000D1F80CC00CFA08FC4CEA070CC0F808C0A4
:1034C0004768B7430E79C6F3001696403E43466000
:1034D0000E79F643B6070AD0C7684FEA420C05FAE0
:1034E0000CF6B7438E6806FA0CF63E43C6600E79BA
:1034F00006F00306022E10D1D60800EB8608D8F895
:10350000206057074FEAD76C09FA0CF7BE430F69E2
:1035100007FA0CF73743C8F8207006684FEA420CE8
:1035200005FA0CF7BE430F7907F0030707FA0CF70B
:10353000374307604E6816F4403F1CD04C4E376846
:1035400047F480473760366822F0030706F4804668
:103550000096484E07EB060CDCF8086897073F0F0B
:1035600009FA07F826EA0806DFF80C81404503D17E
:103570004FF0000841E072E0DFF80081404502D1E1
:103580004FF0010839E0DFF8F880404502D14FF0F4
:10359000020832E0DFF8EC80404502D14FF003082A
:1035A0002BE0DFF8E480404502D14FF0040824E02E
:1035B000DFF8D880404502D14FF005081DE0DFF864
:1035C000D080404502D14FF0060816E0DFF8C480F5
:1035D000404502D14FF007080FE0DFF8BC804045BE
:1035E00002D14FF0080808E0DFF8B080404502D172
:1035F0004FF0090801E04FF00A0808FA07F848EA16
:103600000608CCF80888DAF800605746D1F804C0FC
:103610009E435FEACC2C00D51E433E60DBF8006081
:103620005F46D1F804C09E435FEA8C2C00D51E4350
:103630003E60DEF800607746D1F804C09E435FEA42
:103640008C3C00D51E433E60084F083F3E68D1F8D1
:1036500004C09E435FEACC3C00D51E433E60521C32
:10366000102AFFF411AFBDE8F88F0000083C0140BC
:103670004438024000300140000002400004024093
:1036800000080240000C02400010024000140240FA
:1036900000180240001C02400020024000240240AA
:1036A0000069084000D001207047426921EA020306
:1036B0000A4043EA0241816170470AB18161704763
:1036C0000904FBE701488068704700000000002003
:1036D0000248816802781144816070470000002030
:1036E0000B4810B5016841F400710160016841F4B4
:1036F00080610160016841F480710160032000F085
:103700006FF80F2000F006F800F024F8002010BD3C
:10371000003C024070B50D4D04464FF47A71287894
:10372000B1FBF0F00A490968B1FBF0F000F03AFD96
:1037300048B9102C07D200222146501E00F030F864
:1037400000206C6070BD012070BD000000000020F2
:103750000C0000200A4808B5016841F4804101606E
:10376000006800F4804000900548001F016841F0A7
:1037700080510160006800F08050009008BD00009A
:1037800044380240002809DB00F01F02012191406B
:103790004009800000F1E020C0F8001170470000EF
:1037A000F0B40E4B1B680C46C3F30223C3F10705AC
:1037B000042D00D90425191D072901D2002300E09A
:1037C000DB1E012606FA05F1491E214099409E4064
:1037D000761E16403143F0BC01F05ABE0CED00E0FD
:1037E000064900F0070208684FF6FF03184040EA58
:1037F0000220034A10430860704700000CED00E00F
:103800000000FA052DE9F8431748016841F080519E
:1038100001600068154F00F08050012600903E6462
:10382000FFF750FF05464FF47A78114C05E000BFD2
:10383000FFF748FF401B40450DD86068C003F7D52F
:103840007E64FFF73FFF0546464607E0FFF73AFF75
:10385000401BB04202D90320BDE8F88360688003B2
:10386000F4D50020F8E700004038024000000E4286
:10387000007000402DE9F0470E46050065D0DFF8E6
:103880001481D8F80000F7B200F00F00B04207D260
:1038900088F80070D8F8000000F00F00B04254D152
:1038A00028683D4C810712D5400703D5206840F4B5
:1038B000E05020602878000703D5206840F460407D
:1038C00020602068A96820F0F00008432060287874
:1038D000C0072DD0304968680839012812D0022865
:1038E00013D0032811D00968890700292DDA21682F
:1038F00021F0030101432160FFF7E4FE814641F21C
:10390000883A0EE009688903EFE709688901ECE766
:10391000FFF7D8FEA0EB0901514502D90320BDE80D
:10392000F0872068696800F00C00B0EB810FEFD1E0
:10393000D8F80010404601F00F01B14207D90770D6
:10394000006800F00F00B04201D00120E7E72878BE
:10395000400705D52068E96820F4E050084320605E
:103960002878000706D52068296920F4604040EADD
:10397000C100206000F038F82168084AC1F3031143
:10398000515CC8400649086006480068FFF7C2FE5F
:103990000020C4E7003C024008380240FC57000801
:1039A0000C00002004000020044805490068096854
:1039B000044AC1F38221515CC84070470C000020CA
:1039C000083802400C580008044805490068096896
:1039D000044AC1F34231515CC84070470C000020DA
:1039E000083802400C580008154810B5006810F05F
:1039F0000C02144813D01449042A0FD0082A0ED1FF
:103A00000F4C241F2268236802F03F025B0207D597
:103A10002068C0F38810A0FB010106E0084610BD35
:103A20002168C1F38811A1FB00010023FDF790FB81
:103A30002168C1F30141491C4900B0FBF1F010BD00
:103A4000083802400024F40040787D012DE9F84F49
:103A500004006ED02078DFF84C93C007A9F104056C
:103A60004AD009F104000168C1F38101012908D09D
:103A70000068C0F3810002280AD1D9F80000400292
:103A800006D52868800337D560680028E1D033E088
:103A90006068B0F5803F10D0B0F5A02F286810D036
:103AA00020F480302860286820F480202860606836
:103AB000A8B1FFF707FE06460DE0286840F4803005
:103AC000F4E740F480202860F7E700BFFFF7FAFD35
:103AD000801B642873D828688003F7D50CE0FFF7B3
:103AE000F1FD064605E000BFFFF7ECFD801B6428F2
:103AF000F0D828688003F7D42078DFF8AC828007FC
:103B00004FF0000A3ED5A748001D016811F00C0FC8
:103B100008D00068C0F3810002280BD1D9F800005A
:103B2000400207D42868800716D5E068012800D134
:103B300012E033E1E068B8B10120C8F80000FFF7F7
:103B4000C1FD064605E000BFFFF7BCFD801B022853
:103B5000C0D828688007F7D52868216920F0F800C8
:103B600040EAC10028600DE0C8F800A0FFF7AAFDF8
:103B7000064604E0FFF7A6FD801B02281FD8286830
:103B80008007F7D42078000722D5864F87486169DF
:103B9000703771B101210160FFF794FD064604E022
:103BA000FFF790FD801B022809D838688007F7D5F9
:103BB0000EE0C0F800A0FFF785FD064605E082E0B4
:103BC000FFF780FD801B02287DD838688007F7D476
:103BD0002078400768D5DFF8CCB100270BF13C0B0B
:103BE000DBF80000C0000BD4DBF8001041F080517E
:103BF000CBF80010DBF80000012700F080500090A7
:103C00006B4E3068C00510D4306840F4807030606E
:103C1000FFF758FD009005E0FFF754FD0099401AAA
:103C2000022850D83068C005F6D55E4EA0686C36C4
:103C300001280FD00528306810D020F00100306036
:103C4000306820F004003060A068B8B1FFF73AFD9A
:103C500000900FE0306840F00100F4E740F004000D
:103C60003060F7E7FFF72EFD0099411A41F28830E6
:103C7000814266D830688007F4D50EE0FFF722FD58
:103C8000009007E0FFF71EFD0099411A41F28830CD
:103C9000814256D830688007F4D42FB1DBF8001089
:103CA00021F08051CBF80010A069C8B33D49091D2F
:103CB0000968C1F3810102294AD00228504607D081
:103CC000C8F8600000E03CE0FFF7FCFC04463BE085
:103CD0004746C8F86000FFF7F5FC064605E000BF60
:103CE000FFF7F0FC801B02282BD828688001F7D44E
:103CF000D4E907010843A16A2E4A490802EB0141B1
:103D0000626A41EA8211084394F82C1040EA01618A
:103D1000C9F8001001203866FFF7D4FC044606E01D
:103D20003EE000BFFFF7CEFC001B022809D8286840
:103D30008001F7D534E000BFFFF7C4FC001B022868
:103D400002D90320BDE8F88F28688001F4D427E069
:103D50000128F7D0D9F80000E26900F4800191420F
:103D60001CD1226A00F03F01914217D147F6C07181
:103D7000626A0140B1EB821F10D1A26A4FF0FF339B
:103D800000F4403103EB5202B1EB024F06D194F83C
:103D90002C1000F07060B0EB016F01D00120D1E772
:103DA0000020CFE70438024000004742800E47421F
:103DB000007000400000FFFF704770B5040009D09C
:103DC000606A002540B125616561A56294F85100E3
:103DD00040B10CE0012070BD6068B0F5827FF4D086
:103DE000E561F2E784F85050204600F045F80220E3
:103DF00084F851002068016821F040010160A0882A
:103E0000218900F4827001F404410843A18901F47E
:103E100000610843217C01F002010843217D01F08B
:103E200001010843218B01F400710843217F01F057
:103E30003801084394F8201001F080010843218DD7
:103E400001F40051084321680860A069042101EAD7
:103E5000104094F8241001F01001084321684860D4
:103E60002068C16921F40061C1616565012084F8A1
:103E70005100002070BD00002DE9F04786B00646D5
:103E800014216846FDF7BCF92949306888424BD1B6
:103E900028480025016841F4801101600068254927
:103EA00000F4801014390590086840F02000086084
:103EB000086800F020000590086840F08000086065
:103EC0000868022400F080000590481501274FF093
:103ED00003084FF005098DE8910369461648FFF77E
:103EE000C5FA4FF0400A01AACDF800A082E890037D
:103EF00069461248FFF7BAFA124C11482060B8061A
:103F0000C4E9010A0014C4E9035065614FF440306C
:103F1000A561C4E9075020466562FFF7B7F908B10B
:103F2000FDF7F1FCB464A66306B0BDE8F0870000BD
:103F3000005001404438024000140240001C02407E
:103F400070640240A80000202DE9F84F044690F864
:103F5000500000271D461646894601280DD04FF017
:103F6000010B84F850B0FFF7ADFB804694F8510088
:103F7000BA46012804D0022793E00220BDE8F88F5A
:103F8000B9F1000F73D0002E71D0032084F85100D6
:103F9000C4F854A0C4F83090A686E686C4F838A0C9
:103FA000A4F83CA0A4F83EA0C4F844A0C4F840A0E3
:103FB000A068B0F5004F09D12068016821F04001E8
:103FC00001602068016841F4804101602068016857
:103FD000490603D4016841F040010160E068B0F592
:103FE000006F606803D030B3012E24D041E008B1E7
:103FF000012E1CD1206B21680088C86006E0206873
:104000008168890709D5216B0988C160206B801CF4
:104010002063E08E401EE08609E0FFF753FBA0EB33
:104020000800A84202D3681C01D031E07DB3E08EC5
:104030000028E4D120E0206B21680078087306E0B6
:1040400020688168890709D5216B09780173206B85
:10405000401C2063E08E401EE0860AE0FFF732FB42
:10406000A0EB0800A84203D3681C02D010E017E0C0
:104070006DB1E08E0028E3D142462946204600F08B
:1040800045FE08B120206065A06818B106E0FFE792
:10409000032706E02068C16880680090606D00B169
:1040A000012784F851B084F850A0384666E7000034
:1040B0002DE9F041044690F850000026012809D06F
:1040C000012784F8507094F851000025012804D08D
:1040D00002264EE00220BDE8F08189B182B10320C2
:1040E00084F8510065652163A286E286A563656454
:1040F0002564A587E587A068B0F5004F02D00BE0E6
:10410000012636E02068016821F040010160206846
:10411000016841F480410160A16C18480864A16CF9
:104120001748C863A16C1748C864A06C0565E38E86
:104130002268216B0C32A06CFFF712F938B1606D68
:1041400040F010006065012684F8517011E020688D
:104150000168490603D4016841F04001016020680C
:10416000416841F0200141602068416841F002014E
:10417000416084F850503046ADE700009D4C000887
:10418000A74C00087B4C0008704770474FF0E021B7
:104190000428086903D020F004000861704740F04B
:1041A0000400FAE710B5401EB0F1807F01D3012072
:1041B00010BD4FF0E02460610F21601701F068F935
:1041C0000020A06107202061002010BD70477047CB
:1041D00070B590F83C20012A32D0012480F83C4090
:1041E000022280F83D2003685A689D6822F070061C
:1041F0000A6832435A60134B02689A4214D0B2F1F3
:10420000804F11D0104B9A420ED0104B9A420BD0D7
:104210000F4B9A4208D00F4B9A4205D00E4B9A4250
:1042200002D00E4B9A4204D1496825F0800319430D
:10423000916080F83D40002180F83C10084670BD38
:10424000022070BD00000140000400400008004052
:10425000000C0040000401400040014000180040F4
:1042600010B5040003D094F83D0010B107E0012020
:1042700010BD002084F83C00204600F01FF802200A
:1042800084F83D00211D206800F002FF012084F821
:10429000460084F83E0084F83F0084F8400084F82B
:1042A000410084F8420084F8430084F8440084F814
:1042B000450084F83D00002010BD000008B50068EE
:1042C0000B49884212D10B48016841F0100101608E
:1042D0000068002200F01000009011463620FFF721
:1042E0005FFABDE808403620FFF74CBA08BD000071
:1042F000001000404038024090F83D10012901D0E4
:1043000001207047022180F83D100168CA6842F020
:104310000102CA6000681149884214D0B0F1804F90
:1043200011D00F4988420ED00E4988420BD00E4959
:10433000884208D00D49884205D00D49884202D0F4
:104340000C49884204D1816801F00701062903D095
:10435000016841F001010160002070470000014048
:104360000004004000080040000C00400004014030
:104370000040014000180040704770B504460068D6
:1043800001694FF00005C943890715D4C168C943C5
:10439000890711D4E91E0161012020772068806916
:1043A0008007204602D0FFF7E7FF04E000F098F80E
:1043B000204600F096F8257720680169C94349072F
:1043C00017D4C168C943490713D46FF004010161D0
:1043D000022020772068806910F4407F204602D0B8
:1043E000FFF7CAFF04E000F07BF8204600F079F800
:1043F000257720680169C943090716D4C168C943F4
:10440000090712D46FF008010161042020772068A9
:10441000C0698007204602D0FFF7AEFF04E000F03D
:104420005FF8204600F05DF8257720680169C943F0
:10443000C90617D4C168C943C90613D46FF0100167
:104440000161082020772068C06910F4407F204671
:1044500002D0FFF791FF04E000F042F8204600F0A0
:1044600040F8257720680169C943C90708D1C168A8
:10447000C943C90704D1891E0161204600F032F802
:1044800020680169C943090609D4C168C9430906FE
:1044900005D46FF0800101612046FFF797FE206888
:1044A0000169C943490609D4C168C943490605D40D
:1044B0006FF040010161204600F015F820680169A5
:1044C000C94389060BD4C168C943890607D46FF074
:1044D000200101612046BDE87040FFF778BE70BD45
:1044E000704770477047704770477047F8B501686C
:1044F00004460868CA684B6910F00F0F4FF00005BA
:104500005AD003F0010602F49077374365D0C10713
:1045100005D0D10503D5216C41F00101216441078B
:1045200005D5D90703D0216C41F002012164810730
:1045300005D5D90703D0216C41F00401216401079E
:1045400007D502F02001314303D0216C41F008016E
:104550002164216C00293BD0800604D5900602D549
:10456000204600F028FE20684069216CC0F38010CE
:1045700001F00801014320462BD000F0F5FD206832
:104580004069400621D52068143050E8001F21F012
:10459000400140E80012002AF5D1A06BA8B16C4997
:1045A0000165A06BFEF78FFD002811D0A06B016D97
:1045B00001B0BDE8F040084783060ED593060CD540
:1045C0002046BDE8F84000F0F6BD2046FFF78DFF1D
:1045D000F8BDFFF78AFF2564F8BD266B2023012E66
:1045E00079D1C60677D5D60675D508684868009093
:1045F0004869400640D5A16B086840680004000C7B
:10460000EAD0A28D8242E7D9E085C869B0F5807F03
:104610002DD020680C3050E8001F21F4807140E854
:104620000012002AF5D12068143050E8001F21F054
:10463000010140E80012002AF5D12068143050E84A
:10464000001F21F0400140E80012002AF5D184F853
:104650003E30256320680C3050E8001F21F0100127
:1046600040E80012002AF5D1A06BFEF7E3FCA08D14
:10467000E18D401A81B229E0A08DE18D401A81B20E
:10468000E08D0028A8D00029A6D020680C3050E882
:10469000002F22F4907240E80026002EF5D1206809
:1046A000143050E8002F22F0010240E80026002ECE
:1046B000F5D184F83E30256320680C3050E8002F97
:1046C00022F0100240E80023002BF5D12046FFF72E
:1046D0000BFFF8BDFFE705062BD5150629D594F885
:1046E0003D002128F5D1A068B0F5805F01D1206997
:1046F000B0B1206A411C2162216800784860E08CDA
:10470000401E0004000CE084E3D12068C16821F061
:104710008001C1602068C16841F04001C160D8E7F4
:10472000206A0088C0F308004860206A801C20626C
:10473000E5E74006CDD55006CBD5CA68204622F025
:104740004002CA6084F83D3000F009F9C1E700007A
:104750005951000870B5040004D094F83D000025BC
:1047600010B106E0012070BD84F83C50204600F0F6
:1047700023F8242084F83D002068C16821F400510A
:10478000C160204600F078FD2068016921F4904165
:1047900001612068416921F02A0141612068C168F6
:1047A00041F40051C1602564202084F83D0084F864
:1047B0003E00002070BD000010B586B004461421F4
:1047C0006846FCF71DFD18492068884229D1174822
:1047D0000021026842F010020260006800F0100040
:1047E000059012481438026842F001020260006825
:1047F00000F0010005904FF4C06000900220CDE968
:104800000101032003900720049069460848FEF741
:104810002DFE002211462520FEF7C2FF2520FEF7BF
:10482000B1FF06B010BD0000001001404438024046
:104830000000024090F83E30202B0ED159B152B109
:1048400090F83C30012B08D0012380F83C30002345
:10485000036300F097BD01207047022070470000FD
:1048600010B500680B49884212D1FDF739FD0A499D
:104870000B4B086009480B49027808781A54401C11
:104880000870BDE81040012204490748FFF7D2BF75
:1048900010BD0000001001402C0000102E00002070
:1048A000200200202A000010D40000102DE9F84357
:1048B000044690F83D001F4616460D4620284CD170
:1048C000C5B1BEB194F83C00012846D0012084F85F
:1048D0003C004FF00008C4F84080212084F83D00DF
:1048E000FEF7F0FEA6848146E684A068B0F5805FFE
:1048F00003D004E00120BDE8F883206928B12E46EA
:104900005FF0000584F83C800EE00026FAE7802185
:10491000204600F054FDA0B9AEB116F8010B216895
:104920004860E08C401EE084E08C4B464FF0000273
:1049300000970028EBD14FF04001204600F03FFDEA
:1049400030B10320D7E735F8020BC0F30800E6E7E3
:10495000202084F83D000020CDE70220CBE77047FF
:10496000FEE72DE9F04104461D4616460F462A2073
:1049700000F01EF8204600F011F8304600F00EF866
:104980002B2000F015F8384600F008F8284600F013
:1049900005F8BDE8F0412C2000F00AB810B5044637
:1049A000000A00F019F8E0B2BDE8104000F014B8B9
:1049B00070B5084C0546002280212046FEF77DFE9A
:1049C000284600F009F82046BDE870400122802109
:1049D000FEF773BE001C024001B504480223012209
:1049E00069460068FFF7B0FA08BD000048000020E3
:1049F0007FB5002415480094019402941249039451
:104A000001604FF48031C0E901140461047680F83C
:104A100020400F49C0E90A140125C561C46080F82F
:104A200030404561FEF72DFA08B1FCF76CFF0C2011
:104A3000CDE90005694602940448FEF76DF90028A7
:104A400001D0FCF760FF7FBD002001404400001052
:104A50000100000F094808B5016841F480010160B8
:104A60000068002200F48000009011463C20FEF710
:104A700097FEBDE808403C20FEF784BE3038024077
:104A80002DE9F04387B014216846FCF7B9FB444890
:104A90000024016841F004010160016801F0040193
:104AA0000591016841F020010160016801F02001D9
:104AB0000591016841F080010160016801F0800109
:104AC0000591016841F040010160016801F0400179
:104AD0000591016841F001010160016801F00101E7
:104AE0000591016841F00201016000682D4F00F05E
:104AF00002004FF440450590012229463846FEF752
:104B0000DCFDDFF8A480012280214046FEF7D5FDC0
:104B10004FF40056002231464046FEF7CEFDDFF846
:104B20008C900022C0214846FEF7C7FD4FF40410C8
:104B30000096CDE9010469463846FEF797FC11203E
:104B40000095CDE90104694638460394FEF78EFCD2
:104B50004FF402500125CDE900050320CDE90240C4
:104B600069464046FEF782FCC026CDE900646946EE
:104B70000F480294FEF77AFC0096CDE9015469468D
:104B800048460394FEF772FC002211462820FEF7E7
:104B900007FE2820FEF7F6FD07B0BDE8F083000011
:104BA0003038024000080240001C0240000402406D
:104BB000001802400F4810B50D4901604FF4827192
:104BC000416000218160C1604FF400720161C0E961
:104BD0000512C1610162416281620A21C162FFF76F
:104BE000ECF8002803D0BDE81040FCF78CBE10BDE7
:104BF00000500140500000201CB500240E480094D5
:104C00000C490194C0E9001442F22831C0E9024184
:104C100080218161FFF724FB08B1FCF774FE00944A
:104C2000694605480194FFF7D3FA002801D0FCF744
:104C30006AFE1CBD001000408C0000100C4810B52E
:104C40000A4901604FF4E1314160002181600C228A
:104C5000C160C0E904128161C161FFF77BFD0028DA
:104C600003D0BDE81040FCF74EBE10BD001001405F
:104C7000D4000010FEE7FEE7704710B5806B0168B6
:104C80004A6822F003024A60416D41F0100141651B
:104C9000012180F85110FFF78FF810BD10B5806B1F
:104CA000FFF773FA10BD38B50546846BFEF70AFDB1
:104CB000024628680068C00523D42068416821F0B6
:104CC000200141602068416821F0020141606421B7
:104CD000204600F01BF818B1606D40F020006065C0
:104CE000A068002118B92068C26880680090E18639
:104CF000012084F85100606D18B12046FFF75CF880
:104D000038BD2046FFF740FA38BD000038B50446EC
:104D10001248134B0068B0FBF3F04FF47A7358431A
:104D200000906068B0F5827F0DD10B4600920022A2
:104D30008021204600F016F870B1606D40F0200030
:104D40006065032038BD009830B1401E0090206897
:104D50008068C0430006F6D5002038BD0C00002056
:104D600000366E012DE9F8431E46914688460446FA
:104D7000089DFEF7A7FC401B351AFEF7A3FC07466B
:104D800025480068C0F3CB30684338E0701C37D04A
:104D9000FEF798FCC01BA84203D215B1009860B37F
:104DA0002CE02068416821F0E00141606068B0F5C6
:104DB000827F0BD1A068B0F5004F02D0B0F5806FB4
:104DC00004D12068016821F040010160A06AB0F5BB
:104DD000005F09D12068016821F40051016020685A
:104DE000016841F400510160012084F85100002065
:104DF00084F850000320BDE8F8830025401E009091
:104E00002068816838EA010004D000214945BDD1FD
:104E10000020F0E70121F9E70C0000207047FEF7C1
:104E200057BC000030B593B030216846FCF7E8F974
:104E300014210CA8FCF7E4F920480025016841F092
:104E400080510160006800F0805011901C4801689A
:104E500041F4404101600068022400F44040119098
:104E600001200090000401908001CDE90640192046
:104E700008904FF4B470CDE9090404200B90684603
:104E8000FEF7E4FD08B172B6FEE7FEF7BBFC08B121
:104E900072B6FEE70CA90F2081E831004FF4A05054
:104EA0000F904FF48050109005210CA8FEF7E2FC03
:104EB000002801D072B6FEE713B030BD4038024082
:104EC000007000400248016841F4700101607047C1
:104ED00088ED00E02DE9F047504C00256088401C2B
:104EE00080B260802188884202D3FDF7DFFD6580B3
:104EF0004B48007820B3A0884A49401C80B2A0806B
:104F000094ED030AD1ED000A60EE200A00EE100ACB
:104F1000B8EE400AF4EEC00AF1EE10FA10D8FCF731
:104F2000F5FC00EE100AB8EE400ADFED3F0A20EE75
:104F3000200ADFED3E0A20EE200AFDF7CFFEA58015
:104F4000E08840F6C411401C80B2E080884204D35F
:104F500040213748FEF7A9FBE5803648FFF70DFAF8
:104F6000208941F28831401C80B2DFF8CC80DFF824
:104F7000CC90334F208188421ED332484088B0F510
:104F8000805F19D197ED020A10EE100A404513DD3B
:104F900010EE100A48450FDA2C49DFED2B0A2C4899
:104FA00020EE200ABDEEC00A10EE102A00F05CFAD6
:104FB0002748FDF7C1FC258120896421B0FBF1F26F
:104FC00001FB120068B9234E307850B1FCF7C4FFE2
:104FD00038B1214831784554FDF7EAFCFCF724FC50
:104FE0003570608944F62061401C80B2608188423F
:104FF00012D3B86840450FDD48450DDA6581B0F140
:105000007E5F01DA15A003E01A49884204DD1AA088
:10501000BDE8F047FDF790BCBDE8F0870000001048
:10502000280000101800001033335340000080396E
:10503000000402408C000010ABAA2A3E5555554092
:105040001C000020184100100000704204090208F2
:10505000080100202A0000102002002041542B47A4
:105060005454533D312C22D0C4C2CAB9FDB5CD220F
:105070002C310000713DEA3F41542B475454533DBD
:10508000312C22D0C4C2CAB9FDB8DF222C310000B5
:10509000F0B50268254C264D264E274F274B4FF082
:1050A000804CA04209D0604507D0A84205D0B0424C
:1050B00003D0B84201D0984204D122F0700E4A6861
:1050C00042EA0E02A0421BD0604519D0A84217D078
:1050D000B04215D0B84213D0984211D0184DA84212
:1050E0000ED0184DA8420BD0174DA84208D0174D2E
:1050F000A84205D0164DA84202D0164DA84203D1B1
:1051000022F44075CA682A434D6922F080022A437E
:1051100002608A68C2620A688262A04201D0984234
:1051200001D10969016301214161F0BD0000014025
:105130000004004000080040000C00400004014052
:105140000040014000440140004801400018004078
:10515000001C00400020004010B5806B0021C1857C
:10516000C184FFF7C2F910BD01680C3151E8002F6E
:1051700022F4907241E80023002BF5D1016814312C
:1051800051E8002F22F0010241E80023002BF5D165
:10519000016B012909D101680C3151E8002F22F07F
:1051A000100241E80023002BF5D1202180F83E10A9
:1051B00000210163704708B590F83E10222901D004
:1051C000022008BD82684FF480539A4201D10169E0
:1051D00021B1816A9A421BD04AB10AE00268816A11
:1051E0005268C2F308020A80816A891C08E00269D9
:1051F00072B10268526802F07F020A70816A491C2B
:105200008162C18D491E0904090CC18503D019E0D2
:1052100002685268F1E70168CA6822F02002CA6099
:105220000168CA6822F48072CA6001684A6922F083
:1052300001024A61202180F83E10016B012903D050
:10524000FFF70EFB002008BD0021016301680C314F
:1052500051E8002F22F0100241E80023002BF5D185
:1052600001680A68D20602D50A6849680091818DF2
:10527000FFF73AF9E6E7000070B5044600680169F7
:10528000E26821F44051114301612169A068E2699B
:1052900008436169114308432168CA6849F20C63F5
:1052A0009A430243CA6020684169A26921F44071AF
:1052B0001143416131492068884202D03049884217
:1052C00002D1FEF781FB01E0FEF76EFBE2690023ED
:1052D000192164253226B2F5004F626828D0A0FB60
:1052E0000101930F9200FBF733FF0146B0FBF5F08D
:1052F0006FF01802504301EB800006EB0010B0FB8A
:10530000F5F000F0F002B1FBF5F002EB0012B1FB9A
:10531000F5F06FF01803584301EB800006EB001026
:10532000B0FBF5F000F00F0021681044886070BDFC
:10533000A0FB010192185B41FBF70AFF0146B0FB9D
:10534000F5F00201B1FBF5F06FF01803584301EBE3
:10535000800006EBC000B0FBF5F000F0F80002EBB7
:105360004002B1FBF5F0584301EB800006EBC000B2
:10537000B0FBF5F000F00700D6E700000010014098
:105380000014014081628285C285002101642222CD
:1053900080F83E2080F83C10016921B10168CA689C
:1053A00042F48072CA6001684A6942F001024A61AF
:1053B0000068C16841F02001C160002070472DE9FC
:1053C000F041984617460E460446069D27E0681CA5
:1053D00025D02DB1FEF776F9A0EB0800A8421ED922
:1053E00020680C3050E8001F21F4D07140E8001212
:1053F000002AF5D12068143050E8001F21F0010187
:1054000040E80012002AF5D1202084F83D0084F8FD
:105410003E00002084F83C000320BDE8F0812068B5
:10542000006836EA000004D00020B842CFD0002047
:10543000F3E70120F9E700000148FFF757B8000043
:10544000D4000010FEE700000FB4054B10B503A90F
:10545000044A029800F03CF810BC5DF814FB000010
:10546000F95600084C0000200FB4084B10B504A9F1
:1054700002AA039800F02CF8044602A9002000F0CC
:1054800003F9204610BC5DF814FB000089560008A3
:105490000907090E002804DB00F1E02080F8001461
:1054A000704700F00F0000F1E02080F8141D7047F5
:1054B00002E008C8121F08C1002AFAD170477047DD
:1054C000002001E001C1121F002AFBD1704700003B
:1054D0002DE9FF4F8BB09A460F460546002606E0A1
:1054E00025280BD052460D9990476D1C761C2878C4
:1054F0000028F5D10FB03046BDE8F08F0024A0465B
:105500000122604900E0044315F8013F203B02FA04
:1055100003F00842F7D128782E2817D115F8010F8B
:1055200044F004042A280ED06FF02F022878A0F14E
:10553000300109290AD808EB880102EB410100EB90
:1055400001086D1CF2E757F8048B6D1C2878692858
:105550003ED006DC0028CDD063280BD0642804D1CF
:1055600036E0732810D075284BD052460D999047DD
:10557000761C85E017F8040B8DF8000000208DF8EC
:105580000100E946012003E057F8049B4FF0FF308B
:1055900061074FF0000401D40AE0641C44450DDAB1
:1055A0008442FADB19F804100029F6D106E0641CE5
:1055B0008442FCDB19F804100029F8D1264404E0E9
:1055C00019F8010B52460D999047641EF8D257E026
:1055D00001CF4FF00A0B002802DA40422D2102E0F1
:1055E000210504D52B218DF82410012103E0E107CA
:1055F00005D02021F7E70DF1200908910CE00021EA
:10560000F9E701CF4FF00A0BF9E75946FBF71CFE0B
:1056100001F1300209F8012D0028F6D1ADEB0900A7
:1056200000F1200B600701D44FF00108D84502DDDE
:10563000A8EB0B0000E000208046002406E009A84B
:105640005246005D0D999047641C761C0898844270
:10565000F5DB04E0302052460D999047761CB8F1F6
:105660000001A8F10108F5DC05E019F8010B52462C
:105670000D999047761CBBF10001ABF1010BF4DCF6
:105680006D1C34E7092801000A68531C0B60107078
:105690007047000010B504460420FEF777FD01486E
:1056A000046010BD4000001070B5054600244FF4A2
:1056B0007A7603E0304600F005F8641CAC42F9D37A
:1056C00070BD000070B54FF0E02400226569094903
:1056D000A36909684843A1699942FCD002D2A3EBAF
:1056E000010302E0A5EB010633441A440B46824253
:1056F000F1D370BD4000001008B502238DF8000002
:10570000012269460248FFF7D1F89DF8000008BD64
:10571000D40000102DED028BFDF7E2FFFFF782FBB6
:10572000FFF7AEF9FFF796F9FFF762F9FFF742FAD4
:10573000FFF762FAFFF782FAB420FFF7ABFFFCF73E
:105740004FF8244C208840F4A050FCF75AF82088E9
:1057500040F4A850FCF755F8208840F4B050FCF70E
:1057600050F8208840F4B850FCF74BF801221A4951
:105770001A48FFF75FF81A48FEF7BEFDFDF706F876
:10578000FDF74EFAFDF72AF9A08A40F4B850FCF76D
:1057900038F89FED148ADFED148A144C144D00BFC5
:1057A000FCF78EFD00EE100AB8EE400A20EE080A63
:1057B000C8EE800ABCEEE00A10EE100A2080FCF76A
:1057C000F1F9FCF767FB287808B1FCF71DF9FCF745
:1057D000E9FFE5E7145800082E000020D40000106F
:1057E0008C000010CDCCCC3D00007A44100000109D
:1057F0002C00002000061016000610160000000005
:105800000000000001020304060708090000000070
:10581000010203043F0006005B004F0066006D00BC
:105820007D0007007F006F0077007C0039005E007C
:105830007900710049F7333DCB83343D5A11353D32
:10584000E99E353D772C363D13BB363DAE49373D9D
:1058500049D8373DF167383D98F7383D4087393DA5
:10586000F4173A3DA8A83A3D693A3B3D29CC3B3D67
:10587000EA5D3C3DAAEF3C3D77823D3D44153E3D0F
:105880001EA93E3DF73C3F3DD0D03F3DB665403D73
:105890009CFA403D828F413D7425423D66BB423DAE
:1058A0006552433D57E8433D6380443D6117453DA4
:1058B0006CAF453D7847463D8FE0463DA779473D73
:1058C000BE12483DE2AC483D0647493D37E2493DFE
:1058D000677D4A3D98184B3DC8B34B3D05504C3D44
:1058E0004EED4C3D8B894D3DD5264E3D2AC54E3D56
:1058F00080634F3DD601503D2CA0503D8E3F513D21
:10590000FCDF513D5F7F523DCD1F533D48C1533DAC
:10591000C362543D3E04553DC6A6553D4D49563DD6
:10592000D5EB563D698F573DFD32583D91D6583DD8
:10593000317B593DD11F5A3D7EC55A3D2B6B5B3D96
:10594000E4115C3D91B75C3D575F5D3D10065E3DE7
:10595000D6AD5E3DA8565F3D6DFE5F3D4CA8603DF7
:105960001E51613DFDFA613DDBA4623DC64F633DC2
:10597000B1FA633DA8A6643DA052653D97FE653D22
:105980009BAB663D9F58673DAF06683DC0B4683D20
:10599000D062693DED116A3D09C16A3D26706B3DDB
:1059A0004F206C3D85D16C3DAE816D3DF0336E3D39
:1059B00026E56E3D68976F3DAA49703DF8FC703D45
:1059C00047B0713DA164723DFC18733D64CE733DD8
:1059D000BF82743D3239753D9AEE753D0DA5763D19
:1059E0008E5C773D0E14783D8ECB783D1B84793DDF
:1059F000A73C7A3D40F67A3DD9AF7B3D73697C3D4B
:105A000018247D3DBEDE7D3D709A7E3D21567F3D52
:105A10007009803D4967803D2EC6803D1425813D3B
:105A2000F983813D65E3813DD042823D3CA2823DC8
:105A30002E02833D2062833D98C2833D9623843DA0
:105A40000E84843D0CE5843D9146853D15A8853D39
:105A50009A09863DA56B863DAFCD863D4030873D9A
:105A6000D192873DE8F5873DFF58883D17BC883DBA
:105A7000B41F893D5183893D75E7893D994B8A3D26
:105A800042B08A3DEC148B3D1C7A8B3D4CDF8B3D44
:105A90007C448C3D32AA8C3DE90F8D3D25768D3DB1
:105AA00062DC8D3D24438E3DE7A98E3DAA108F3DDB
:105AB000F2778F3DC2DF8F3D9147903D60AF903DC3
:105AC000B517913D0A80913DE6E8913DC251923D66
:105AD00023BB923D8524933DE78D933DCFF7933DC6
